:020000040000FA
:100000000807000031060000D100000011060000C2
:1000100000000000000000000000000000000000E0
:10002000000000000000000000000000B106000019
:100030000000000000000000DB000000E500000000
:10004000EF000000F9000000030100000D010000B6
:1000500017010000210100002B0100003501000004
:100060003F01000049010000530100005D01000054
:1000700067010000710100007B01000085010000A4
:100080008F01000099010000A3010000AD010000F4
:10009000B7010000C1010000CB010000D501000044
:1000A000DF010000E9010000F3010000FD01000094
:1000B00007020000110200001B02000025020000E0
:1000C0001FB5C046C04600F09FFA04B00FB41FBD74
:1000D00008205A49096809580847382057490968CB
:1000E000095808473C2055490968095808474020E5
:1000F0005249096809580847442050490968095875
:10010000084748204D490968095808474C204B4981
:10011000096809580847502048490968095808479C
:100120005420464909680958084758204349096836
:10013000095808475C204149096809580847602068
:100140003E4909680958084764203C49096809582C
:100150000847682039490968095808476C20374919
:100160000968095808477020344909680958084740
:100170007420324909680958084778202F490968CE
:10018000095808477C202D490968095808478020EC
:100190002A490968095808478420284909680958E4
:1001A0000847882025490968095808478C202349B1
:1001B00009680958084790202049096809580847E4
:1001C00094201E4909680958084798201B49096866
:1001D000095808479C201949096809580847A02070
:1001E0001649096809580847A4201449096809589C
:1001F0000847A8201149096809580847AC200F4949
:10020000096809580847B0200C4909680958084787
:10021000B4200A49096809580847B82007490968FD
:1002200009580847BC2005490968095808470000D3
:1002300003480449024A034B7047000000000020B5
:1002400008070000080700000122B14B5A6000BFF8
:10025000B04A1268002AFBD0016000BFAD4A1268A4
:10026000002AFBD00022AA4B5A6000BFA94A12689C
:10027000002AFBD07047F0B505460C46164600270D
:1002800006E028462168FFF7DFFF2D1D241D7F1C97
:10029000B742F6D3F0BD70B505460C462E460BE0CE
:1002A000304600F049F9FF2C01D8002401E0FF3C62
:1002B000013C012080023618002CF1D170BDF0B550
:1002C00005460E461746002406E0A200B158A200DB
:1002D0005019FFF7B9FF641CBC42F6D30020F0BDF3
:1002E0000120C0438C4908604010486070470146B7
:1002F000012292044868904201D90920704787483A
:100300004069401C01D10F20F8E70020F6E7FEB558
:1003100004462068002806D001282BD0022840D0AF
:10032000032855D144E0201DFFF7E1FF0546002DCD
:1003300001D02846FEBDFFF7D3FF0120C00200F028
:10034000FBF8042221467648FFF7B9FF002801D0C8
:100350000320EFE708222146714800F025F9002824
:1003600006D100216F480068FFF76EFF00F0C7F864
:100370000320DFE7A768E6686068019031463846E9
:10038000FFF789FF324638460199FFF774FFB20044
:100390003846019900F008F9002800D1CAE7032087
:1003A000C8E700F09BF960480068604908600FE00A
:1003B00060680190E668A0680090B200009901981A
:1003C00000F0F2F80746002F00D1B3E70E20B1E7A6
:1003D00000BF0020AEE770B505460C46182D04D1CD
:1003E0002068FFF794FF206002E00120206000BF3A
:1003F00000BF70BDF0B589B04848406903904848D7
:10040000806881000398081802900398000B0190FF
:100410000121090302984018401E000B009001249E
:10042000002520462946019A00F0AEF80022401E21
:100430009141079106900126002730463946009ADF
:1004400000F0A2F80022401E914105910490049B07
:10045000DB43059AD2430698184307991143079145
:1004600006902D49069808600798486009B0F0BDCD
:1004700070B52A4844692A4885684668AA0031460A
:10048000204600F091F8002801D0002070BD012026
:10049000FCE723484068002801D0012000E000204C
:1004A0000546204800680068401C01D100BFFEE7F7
:1004B0001B480068002801D000BFFEE7FFF7D8FF07
:1004C000002807D0FFF70CFF0320800200F034F86B
:1004D00000F015F8FFF78EFF002D0ED00F4846698B
:1004E0000F488468476821463046FFF7D4FE22460D
:1004F00039463046FFF7BFFE00BF00F000F8BFF3FB
:100500004F8F0B480B49C860BFF34F8F00BFFEE70A
:1005100000E5014000E4014000060040001000102A
:1005200000080000FC06000000070000000000209A
:100530000400FA0500ED00E010B5104B1A68014602
:1005400002230F4C636000BF0E4B1B68002BFBD0D7
:10055000531C02D00A4B186101E0094B996000BF9F
:10056000084B1B68002BFBD00023054C636000BFC9
:10057000044B1B68002BFBD010BD000000100010C6
:1005800000E5014000E4014010B5202A04DB0146EB
:10059000203A9140002010BD914020239C1A034630
:1005A000E3401943904010BD034610B50B439B0731
:1005B0000FD1042A0DD308C810C9121FA342F8D0C6
:1005C00018BA21BA884201D9012010BD0020C043C9
:1005D00010BD002A03D0D30703D0521C07E000202F
:1005E00010BD03780C78401C491C1B1B07D10378F5
:1005F0000C78401C491C1B1B01D1921EF1D11846DE
:1006000010BD70477047704710B500F007F810BD77
:10061000014B1B68DB6818470000002019481A4985
:100620007047FFF7FBFFFFF74BFD00BD20BFFDE765
:10063000164B1B681649994207D1164B164A136090
:10064000186813498842F1D00FE0144C246810490F
:100650008C4204D0124880F30888124B18470E4A87
:10066000136018680A498842E0D080F308880E4970
:10067000884204DD0D48026802210A4302605B687B
:1006800018470000080700000807000014100010B9
:10069000FFFFFFFF0010000000000020000C000022
:1006A00000040020930400000020002024050040E6
:1006B0000D48704502D1EFF3098101E0EFF30881A5
:1006C000886902380078182802D1C046074A1047C6
:1006D000074A12682C3212681047000000B5054B1B
:1006E000054A9B58984700BDFDFFFFFFD703000058
:1006F000000000200010000004000000000C0000BA
:0407000000100000E5
:10100000F01C0020ED700100052B00005370010062
:1010100000000000000000000000000000000000D0
:101020000000000000000000000000005D710100F1
:101030000000000000000000052B0000052B000050
:10104000C9710100CF710100052B0000052B0000C4
:10105000052B0000052B0000052B0000052B0000D0
:10106000D5710100052B0000052B0000DB7101008C
:10107000052B0000E1710100E7710100ED71010035
:10108000052B0000052B0000052B0000052B0000A0
:10109000052B0000052B0000052B0000052B000090
:1010A000F3710100F9710100052B0000052B000010
:1010B000052B0000052B0000052B0000052B000070
:1010C00000F002F815F0F3FF0CA030C8083824181F
:1010D0002D18A246671EAB4654465D46AC4201D170
:1010E00015F0E5FF7E460F3E0FCCB6460126334293
:1010F00000D0FB1AA246AB46334318471C630100DD
:101100004C630100103A02D378C878C1FAD852076C
:1011100001D330C830C101D504680C6070470000AD
:101120000023002400250026103A01D378C1FBD803
:10113000520700D330C100D50B6070471FB5C046C1
:10114000C04615F073FF04B00FB41FBDF0B44046A5
:10115000494652465B460FB402A0013001B506482D
:10116000004700BF01BC86460FBC804689469246B8
:101170009B46F0BC70470000C11000008269024924
:101180008161024810447047911100000100000085
:1011900001B41EB400B511F09DFC01B4019886465F
:1011A00001BC01B01EBD0000401E00BF00BF00BF5B
:1011B00000BF00BF00BF00BF00BF00BF00BF00BF37
:1011C00000BFF1D17047000070B505460C461646C9
:1011D00002E00FCC0FC5103E102EFAD2082E02D31B
:1011E00003CC03C5083E042E07D301CC01C5361F2E
:1011F00003E021782970641C6D1C761EF9D270BD45
:101200008307FF22DB0E9A408907090E99400028C8
:101210000BDA0007000F0838830828489B001B18CA
:10122000D86990430843D8617047830824489B00DD
:101230001B181868904308431860704710B504469F
:1012400000210120FFF7DCFF00211820FFF7D8FF65
:1012500000210B20FFF7D4FF02211920FFF7D0FF58
:1012600002210D20FFF7CCFF02210E20FFF7C8FF5F
:1012700002210F20FFF7C4FF0221C81FFFF7C0FFA4
:1012800003211620FFF7BCFF03211520FFF7B8FF4D
:10129000204600F019F8002010BD5E210180704743
:1012A00010B500F03CF810BD0648704710B500F0CE
:1012B00037F810BD704770477047000000ED00E040
:1012C00000E400E003F900C330B5044695B02F48B0
:1012D00001F04AFC2E4D07202870A81CFFF7DDFF07
:1012E0005920A880294801F03FFC054600F052F83B
:1012F0002946274800F0C4F9641E072C0AD830217B
:1013000068460170847001F00BFA002802D009A829
:1013100000F0F7FB284601F028FF15B030BD7047FC
:1013200010B50C46014660390B2903D8214601F05F
:101330009CFB06E001466C39032904D8214601F0E4
:10134000D2FB206010BD014670391F2903D8214609
:1013500001F0C2FAF5E7014690390F2903D821467A
:1013600000F006F9EDE70146A0390F2903D8214620
:1013700000F092F8E5E70146B0390F2903D821467D
:1013800001F03AFBDDE70120DBE700001B35000040
:101390001800002010B502F0EEFD11F0B5F900F0D4
:1013A00007F811F003FB03F009FB03F095FA10BDF9
:1013B00001202A49C003086029490020087009203B
:1013C0002849800288607047F8B5254D0446287882
:1013D000A04207D0002C05D0002803D022A14D2028
:1013E00015F031FE2878A04212D02C700925002378
:1013F0002249AD021B48002C25D0214E214A224F04
:10140000012C06D0022C12D017A16E2015F01BFE65
:10141000F8BD0B6002230B604E6185601B491162B1
:101420005762091D91631A49D1634560F8BD0B608D
:1014300003230B604E61012149038160154B9363C7
:10144000D7634160F8BD0B600B608560F8BD10B5D7
:1014500005A1772015F0F7FD10BD000080E100E048
:101460001E00002000F501407372635C68616C5FD0
:1014700063636D5F6161722E6300000000F50040E0
:101480002401002040F5014000F000400011004020
:1014900004F000402811004010B5A038030015F0FA
:1014A000D0FE0B070E172028323C434D545D6500DB
:1014B0004B6808788A68194604F08FFE10BD88884A
:1014C0008A6883B20888194680B204F095FE10BD80
:1014D00008884C68CB688A6880B2214604F090FE88
:1014E00010BD08884B688A6880B2194604F0A4FED3
:1014F00010BD8888CB6884B208888A6880B221468B
:1015000004F0AFFE10BD8888CB6884B208888A6872
:1015100080B2214604F0B5FE10BD08884A6880B24A
:10152000114604F0D6FE10BD088982B2888883B2C5
:101530000888194680B204F0D7FE10BD08884A68B2
:1015400080B2114604F0F0FE10BD08894B6882B2EB
:101550000888194680B204F056FF10BD08884B6811
:101560008A6880B2194605F066F810BD012010BDEA
:1015700010B59038030015F064FE09060F161D24FF
:101580002C363F464E0088888A6883B20888194600
:1015900080B205F0AAFC10BD08884A6880B21146E6
:1015A00005F020FD10BD08884A6880B2114605F09C
:1015B0006EFD10BD08884A6880B2114605F0BBFD7B
:1015C00010BD08884B688A6880B2194605F003FE92
:1015D00010BD088982B2888883B20888194680B213
:1015E00005F04FFE10BD08894B6882B20888194685
:1015F00080B205F09CFE10BD08884A6880B2114692
:1016000005F0E3FE10BD888882B20888114680B2DA
:1016100005F09CFF10BD012010BD000038B5044648
:10162000002069460870204609F029FA002803D1F5
:10163000F9A19D2015F007FD204609F058F9002872
:1016400003D1F5A1A22015F0FEFC6846007838BD54
:1016500070B5F64D002428462C7620308471C47174
:1016600001F01BF9284640380470203084738474DC
:1016700084762C74AC70FF300130047070BDE7E7E5
:1016800010B50C46EA4982888A8042884A800078F0
:10169000087008460E38847009F000F908F0A1FAC5
:1016A000FFF7D6FF20460AF06AFBE04AE032114617
:1016B000383908461446813809F082FB2146DC4857
:1016C0000BF06AFEDA480A3808F09EFA002803D0C8
:1016D000D1A1BF2015F0B7FC01F0DFF810BD7CB53B
:1016E0000E461D46144601A908F0A8FA002801D0AC
:1016F00001207CBD01988030807A09F00CF9002827
:1017000007D0684609F011F90028F2D0002C0BD15F
:1017100006E08B20C0A1800015F095FC00207CBD68
:10172000BDA1C44815F08FFC09F0B9F8A04204D25D
:10173000C048B9A1401C15F086FC009808F05EFC7A
:101740003146009808F06CFCE2B22946009808F097
:101750002AFE09F0FFF8002804D1B648AEA11030E7
:1017600015F071FCB24C00250E3C60688030417F62
:10177000002902D045770AF020FC6068803045825D
:10178000B6E710B50179002907D001290AD0A2A136
:10179000D92015F058FC002010BD831D4288048814
:1017A000022103E042880488831D01212046FFF7BF
:1017B00096FF10BDF8B51D4614460E46074609F0C3
:1017C00040FF022803D09948007C002823D0984885
:1017D0000E3841684988398040688030807A09F045
:1017E0003BFA002804D193488BA13C3015F02BFC28
:1017F000684609F03BFA00280DD0009808F048FC34
:101800003070022808D0012806D0A52082A18000CF
:1018100015F019FC0020F8BD2946009808F0DAFD03
:101820002080002804D183487BA14C3015F00BFCAC
:1018300009F032FA002804D17E4877A1533015F020
:1018400002FC0120F8BD38B50446831D821C6946A0
:10185000FFF7B0FF00280CD00020607168460078C8
:10186000012807D0022805D06BA1FA2015F0EBFB68
:10187000012038BD2071FBE7F8B509F0E2FE6C4DA0
:101880006A4C0E3D022802D0207C00287ED0207EAB
:101890000026102818D1A078002803D05EA1664841
:1018A00015F0D1FB686801464030027D92070BD5E8
:1018B00026714988E180417D2172C18A6181008B56
:1018C000A0810120A0702676584F203FB87C0028C8
:1018D0005FD1686869468030807A09F0D0F80028C6
:1018E00005D06946687809784018687004E0524865
:1018F00049A1193015F0A7FB207C00283BD068686F
:1019000041884A484038406D4088814204D04A4866
:1019100041A11E3015F097FB68688030807A09F08D
:101920009BF9002804D144483BA1243015F08BFBDF
:1019300009F0C9F900281ED068688030807AFFF766
:101940006DFE6978394A40186870403A506D3F2101
:10195000095C01290ED13E77696840304988D187FA
:10196000007820700120B876207E102801D0282829
:1019700000D126762674697800290AD068684288E2
:101980002A484038C2860187012000E001E0B8748F
:101990006E7009F053FE002805D1207C002802D08B
:1019A000A87801F005F9F8BDF8B50446FFF764FF23
:1019B0001E4D403D287800261C4F002810D0387E50
:1019C000002804D0FF2014A19C3015F03CFB2C22F1
:1019D000A91C204615F0B8F90E2020702E708EE05C
:1019E000124D203DA87B002828D0387E102808D032
:1019F000282806D0002804D0FF2007A1A53015F024
:101A000022FB0120E070E87BA070287C60700F2032
:101A10002070AE7373E000007372635C6C6C5F6384
:101A200074726C2E73302E6300000000C001002021
:101A30002E0000203A020000AB05000001212046E4
:101A400009F064F9002807D0387C002844D100212F
:101A5000204609F05BF9F8BDA97CF6480090F648ED
:101A6000002910D0017805290DD2491C017066703B
:101A70000D202070012028750622A01C009915F069
:101A800063F9AE743BE0EC480670B878002812D0D9
:101A9000387E002804D0FF20E849E33015F0D3FA5F
:101AA00066700120E34920700A221031A01C15F055
:101AB0004BF9BE7023E020460BF0D1FB00281ED16D
:101AC000A87C002802D0DC480178CEE7A87E002858
:101AD00002D0387C002801D00020F8BD387E0028D4
:101AE00003D0D649D64815F0AEFA66700A20D1491F
:101AF000207006220831A01C15F026F9AE760120D0
:101B0000F8BD51E710B5CB4C343C2078002804D107
:101B100020464030007E002803D0C849C94815F04F
:101B200092FA00202071012060713C21E170207048
:101B300010BDF8B5BF4C343C20782646403600280E
:101B400002D1307E002804D0BE48BC49283815F0A8
:101B50007AFA0020A07109F074FD0125022802D054
:101B6000307C002841D0B44F694678688030807A54
:101B700008F09CFF002804D1B248B049213815F084
:101B800062FA307C002806D0606D2030C07F0028CB
:101B900001D0012600E0002678688030807A09F0C4
:101BA0005BF8002804D1A748A449183815F04BFA6F
:101BB00009F089F868403146014316D07968FD2262
:101BC00049882181217E4000490849003143114064
:101BD0000143217668460078002802D004200143A2
:101BE00001E0FB2001402176A57100202071657184
:101BF0003B20E0702570F8BD10B58E4C343C207849
:101C0000002804D120464030007E002804D0C720A0
:101C10008A49C00015F017FA874906220831A01D2D
:101C200015F092F800202071012060710E21E17002
:101C3000207010BD70B57F4C0546343C20780028DC
:101C400004D120464030007E002803D07B497E48E6
:101C500015F0F9F9287809F04FF928780BF012FD02
:101C600000202071012060713821E170207070BD6A
:101C700070B5704C0546343C2078002804D12046CD
:101C80004030007E002804D06F486C49183815F0A9
:101C9000DAF9694E298870684088884203D109F0D2
:101CA000D0FC022807D0022020710120607137216A
:101CB000E170207070BD70687F2120300174E97878
:101CC0000171A978C1700020EEE710B5594C343C81
:101CD0002078002808D120464030007E002803D11B
:101CE00009F0AFFC032804D155485449CC3015F015
:101CF000AAF9504900202C31C8712071012060716F
:101D00003921E170207010BD70B54A4C0646343C54
:101D10002078002808D120464030007E002803D1DA
:101D200009F08FFC032804D145484449DF3015F001
:101D30008AF9404D2C35E87908280BD200010019AA
:101D400068301022314600F0AEFDE879401CE871A1
:101D5000002000E007202071012060713A21E1702D
:101D6000207070BDF8B5334C0546343C207800280F
:101D700004D120464030007E002804D032482F494C
:101D8000443815F060F9A878002801D0012804D162
:101D9000A888FF21F531884204D92B4827493E38CD
:101DA00015F051F9244F298878684088884203D17A
:101DB00009F047FC022807D0022020710120607141
:101DC0003521E1702070F8BD796800260846A03101
:101DD0000E76AA884A83012280300277AA78012AE7
:101DE00000D000220A76407F002801D00AF0E5F8F2
:101DF0002671E3E770B50F4C0546343C2078002887
:101E000008D120464030007E002803D109F019FC9B
:101E1000002804D00C480949673815F014F92878CF
:101E200009F0EDFF00202071012060713021E17088
:101E3000207070BDB401002020000020181A00009E
:101E4000030200006F0600004D05000070B5FE4C57
:101E500005462078002808D120464030007E002822
:101E600003D109F0EEFB002803D0F849F84815F03B
:101E7000EAF82978002914D00A2912D0142910D0A0
:101E80001E290ED028290CD032290AD04B2908D07F
:101E9000642906D0FF2904D0ED48EC490C3015F038
:101EA000D2F828460AF01BF800202071012060714A
:101EB0003321E170207070BD70B5E34C0546207889
:101EC000002804D122464032107E002804D09B20F6
:101ED000DE49C00015F0B7F806222946DD4814F0A7
:101EE00033FF00202071012060713221E1702070E9
:101EF00070BD70B5D44C05462078002804D120462A
:101F00004030007E002804D0D148D0492F3815F049
:101F10009AF800216956042914D0002912D0081D0E
:101F200010D0001D0ED0001D0CD0001D0AD0001DC9
:101F300008D00A3006D0283104D0C548C3492D380E
:101F400015F081F8C44829780170012060713121B1
:101F5000E170207070BDFEB5BB4C074620780028AC
:101F600003D0BA49BD4815F06EF83888694607F0C5
:101F700065FEB54D014600200835002904D0022138
:101F80002171286028710FE00098009E0A300190AE
:101F900040360020307705222846019914F0D4FEFF
:101FA000307F0028F5D13888E0800E20A0702520F1
:101FB000E070012060712070FEBD10B5A24C207849
:101FC000002804D120464030007E002804D0A348D9
:101FD0009E49103815F037F808F061FCE08008F0F1
:101FE0004CFD207200202071012060710521E170FC
:101FF000207010BDF8B5944C07462034A07B2546D0
:102000002035002805D1287E002802D1A878002894
:1020100004D093208D49C00015F015F809F011FB8C
:102020001026022824D18B483A8808384068418815
:1020300091421DD10146C0310A78002A05D04030B6
:10204000007D80070DD40C200DE05422125C920715
:1020500007D406220A708030407F002801D009F0A2
:10206000ACFF2E760020E07326740120A073F8BD2B
:102070000220F8E710B5744C2078002804D12046DF
:102080004030007E002804D0714870496B3814F04D
:10209000DAFF002020710E20A0700F20E070FF20DA
:1020A000A0710020C04320816A48801D0178A17280
:1020B0008188A1814088E08101206071207010BD7D
:1020C00010B5614C2078002804D120464030007EB5
:1020D000002803D05D49624814F0B5FF0821A01D17
:1020E00010F0AEFB00202071012060712B21E17007
:1020F000207010BD70B5544D04462878002804D1D6
:1021000028464030007E002804D051484F496B30AB
:1021100014F099FF4C4810222146303800F0C3FBE0
:1021200049481022A118203800F0BDFB464830383D
:1021300010F08DFC4449102210392C46A81D00F0E7
:10214000B2FB002020710E20A0702A20E070012038
:102150006071207070BDF8B53B4C05462034A07B03
:1021600026462036002802D1307E002804D03C4884
:102170003649B33014F067FFA978052912D0132926
:1021800010D014290ED015290CD01A290AD02929CB
:1021900008D03D2906D03B2904D031482B49BB301B
:1021A00014F051FF28882F49884204D92C48274928
:1021B000C43014F048FF09F044FA0C222827022802
:1021C0000BD124482B88083840684188994214D1A3
:1021D0000146A0310B7F002B01D0E2730FE0AA78FB
:1021E0004A7701220A7737760021E1738030407FF9
:1021F000002804D009F0E1FE01E00220E07327741A
:102200000120A073F8BD70B50F4C0546207800285A
:1022100004D122464032107E002804D0F5200B491C
:10222000800014F010FF0848294660300622054659
:1022300014F08AFD0120A87100212171607117211D
:10224000E170207070BD000080010020181A0000AD
:10225000F104000028000020A00200201A0600005F
:1022600033030000FF0E0000F0B5FF4F85B03D7A4C
:1022700006463846E0380078002804D13846A038B1
:10228000007E002803D0F949F94814F0DCFE3078CC
:10229000002806D0012804D0F548F449401C14F069
:1022A000D2FE082D3AD2F04820300190C46930782F
:1022B00000282DD0012804D0ED48EC490F3014F04F
:1022C000C2FE294608310120884004430120A8406D
:1022D00020430090B179E44C080272796900E03C37
:1022E00009191043FF3101318881B01C14F08DFDB4
:1022F000717800020843A9000919C031C862387A10
:10230000401C387201990098C8610020207109E0D2
:1023100029460831012088408443D7E7D248072165
:10232000E0380171D0480121E03841710B22C270C0
:10233000017005B0F0BD10B5CB4CE03C2078002812
:1023400004D120464030007E002804D05F20C749D9
:10235000C00014F078FE00F0A0FA002020710120E7
:1023600060710A21E170207010BD10B509F0D0FC39
:10237000002804D05520BD49C00014F064FE08F0C8
:102380005EFA0BF001F8002804D0B948B74951387B
:1023900014F059FE08F0E9FC002804D0B448B34911
:1023A0004D3814F050FE00F078FAFFF751F9AE48BE
:1023B0000021E0380171012141710222C2700170D7
:1023C00010BD70B5A84D0446E03D2878002804D122
:1023D00028464030007E002804D0A548A3497D301F
:1023E00014F031FE20781F2801D8601C04D1E120B0
:1023F0009E49800014F027FE002028712078611C7F
:1024000008F069FD012068712021E970287019E742
:10241000F8B5954C0646E03C207825464035002826
:1024200016D1287E002813D109F00BF9002802D11B
:10243000287C002802D03078002809D18A48C0388A
:10244000807E002809D0287F032806D0022804D0E7
:10245000874886498B3014F0F6FD3078012806D085
:10246000002804D082488149933014F0ECFD01200B
:10247000607130780C277F4E01280AD0002009F0C7
:1024800030FC00282BD027711B20E0700120207029
:10249000F8BD277108F0A7FC0028F5D00122032120
:1024A000706808F042F8706808F002FE70688A30C0
:1024B00008F0F7F9002804D16D486C49A33014F0F6
:1024C000C2FD297F688B09F09EFC002804D0684873
:1024D0006649A73014F0B7FD00202071D4E7002032
:1024E0002071287C0028CFD170688030807AFFF777
:1024F00095F8C9E770B55C4D0446E03D28780028A2
:1025000004D128464030007E002804D0584857495E
:102510006F3014F098FD20781F2801D8601C04D17A
:1025200053485249703014F08EFD002028712078F5
:10253000611C08F0E4FC012068711A21E970287020
:1025400080E6F8B5484D0C270446E03D28782E4635
:102550004036002806D1307E002803D109F071F8FA
:10256000032804D142484149393014F06CFD6079A8
:10257000002801D001282FD1A079002801D00128FE
:102580002AD1A07B002805D0012803D0022801D041
:10259000032821D1607B40071ED061880120800381
:1025A000814202D82288824201D920790CE0207928
:1025B000002804D0022805D0032803D004E02029F5
:1025C00004D209E0A02A01D2012805D1208888423E
:1025D00007D92079012804D0254824494B3014F02C
:1025E00032FD20887083207930776079002802D00E
:1025F000012804D00DE01F4A0832002105E01A4AE4
:10260000803A9079002804D00121204608F0EFFBA1
:10261000074601202F7168711821E9702870F8BDF4
:1026200070B5114C0546E03C2078002804D12046C6
:102630004030007E002803D00C490F4814F003FD01
:1026400008F0FFFF0C2202281BD10A482B884168A2
:102650004888834225D10846C0300378002B10D12A
:102660002031497C0F2909E060020020181A00007F
:1026700006030000200000205B04000003D01029A6
:1026800001D0227103E005210170002020710E208D
:10269000A0702E20E0702888E080012060712070FA
:1026A000D0E50220F2E770B5854C05462078002879
:1026B00004D120464030007E002803D08149824862
:1026C00014F0C1FC08F0BDFF0C2102280FD17F4E91
:1026D0002A88706843889A4220D1C022125C002A5E
:1026E00005D13122125C0F2A03D0102A01D02171AA
:1026F0000AE01022A91CCE3014F026FB70680421D9
:10270000C0300170002020710E20A0702D20E070DC
:102710002888E08001206071207093E50220F2E7B4
:1027200010B501780B0014F08CFD3D8D8D388D8D2A
:10273000588D8D8D8D3B3E8D8D8251548D8D8D8D1F
:102740008D8D42288D2C308D8D8D8D348D8D8D8D80
:102750005B8D8D468D4A4E8D20248D6B5F63678D1A
:102760006F8D7A7E777385888D00801CFFF79BFFC5
:1027700066E0801CFFF754FF62E0801CFFF7E1FE7B
:102780005EE0801CFFF7B6FE5AE0801CFFF740FEBB
:1027900056E0801CFFF715FE52E0FFF7E6FD4FE024
:1027A000FFF7C9FD4CE0801CFFF75EFD48E0801C90
:1027B000FFF729FD44E0801CFFF7CDFC40E0801CC2
:1027C000FFF798FC3CE0FFF77BFC39E0FFF752FC99
:1027D00036E0801CFFF70EFC32E0FFF7EEFB2FE047
:1027E000801CFFF7B8FB2BE0801CFFF782FB27E083
:1027F000801CFFF761FB23E0801CFFF727FB1FE035
:10280000801CFFF7F7FA1BE0801CFFF7ABFA17E01C
:10281000801CFFF779FA13E0FFF757FA10E0801CED
:10282000FFF726FA0CE0801CFFF704FA08E0FFF738
:10283000E3F905E0FFF77DF902E0801CFFF762F99C
:10284000012010BD002010BD70B51D4905461F4C6C
:102850000A460126403260682B0014F0F2FC05178E
:102860001A1A04171A000122002107F05EFE6068A0
:1028700000220146C0310A704A7009F031FB00287D
:1028800003D01049124814F0DEFBDBE416744865EF
:10289000D8E40F480B493330F5E70E490020C861F2
:1028A00020390872704730B5134606E0CC18203C3A
:1028B000E47FD51A44555B1EDBB2002BF6D130BD48
:1028C00080010020181A00002F04000020000020C2
:1028D000840600008002002010B57038030014F058
:1028E000B0FC1A0E12161E22252C33383D414549E4
:1028F00050555C65876D767D8287878787890868F4
:102900000CF0F7F810BD08680CF029F910BD0C792F
:102910000B7B8A68086821460CF034F910BD086802
:102920000CF006FA10BD0BF016FF10BD08884A68BF
:1029300080B211460CF0F7FA10BD0A7908881146EA
:1029400080B20CF086FB10BD087840B20CF0A5FBFD
:1029500010BD088880B20CF0B9FB10BD08680CF0FF
:10296000C7FB10BD08680CF03BFE10BD08680CF0FA
:1029700066FE10BD088982B209C919460CF0D3FB66
:1029800010BD05C911460CF01DFC10BD08884A6831
:1029900080B211460DF0E3FC10BD0C790888CB68BD
:1029A0008A6880B221460DF0C6FD10BD0B790888FB
:1029B0008A6880B219460DF080FF10BD08884C6807
:1029C000CB688A6880B221460EF055F810BD0888A1
:1029D0004A6880B211460EF098F810BD088880B29F
:1029E0000CF014FC10BD088880B20CF03BFC10BD4C
:1029F000062010BD012010BD10B5B038030014F042
:102A000020FC05040C141F28320008884B688A68D3
:102A100080B219460FF005F910BD888882B2088887
:102A2000114680B20FF0D0F910BD88898A6883B250
:102A3000888884B20888214680B20FF0E4F910BD7E
:102A400088888A6883B20888194680B20FF00DFA28
:102A500010BD088982B2888883B20888194680B27E
:102A60000FF034FA10BD012010BD10B5603803001E
:102A700014F0E7FB09060B0F141B22262D3237003A
:102A800005C9114600F006FE10BD086800F0F5FD0E
:102A900010BD05C9114600F06DFE10BD4B680878E9
:102AA0008A68194600F07FFE10BD4B688A68086886
:102AB000194600F099FE10BD086800F0B5FE10BD83
:102AC00008884A6880B2114600F0F9FE10BD05C9B9
:102AD000114600F00CFF10BD05C9114600F01FFFA4
:102AE00010BD012010BD10B56C2801D0012010BD13
:102AF000087800F0CDFE10BD0E4A12680C498A42DB
:102B00000AD118470B4A1268094B9A4204D101B501
:102B10000FF0D7FF03BC8E460749096809580847DC
:102B200006480749054A064B7047000000000000B0
:102B3000BEBAFECAB000002004000020F01C002035
:102B4000F01C002001203F49400608603E49086013
:102B50003E490A68FF231B029A4383121A430A6004
:102B6000384980390860704710B50246042038495A
:102B700004E0C3005B181B79002B0AD00346401EFB
:102B8000C0B2002BF5D133A1432014F05CFAFF2032
:102B900010BDC300CA50002259184A718A7101221F
:102BA0000A7110BD2A4A0021C000801801717047C7
:102BB00010B50446042803D326A1522014F043FA8A
:102BC0002348E1000C182079012803D021A15320CB
:102BD00014F039FA6079A179401CC0B2814200D06A
:102BE00060710120174940068031086010BD70B542
:102BF000164800680004800F022803D015A1692040
:102C000014F021FA124E194C03252078C1008819BE
:102C10000279012A07D1427983799A4203D0427915
:102C20008271705880472078401CC0B22070042800
:102C300001D30020207028466D1EEDB20028E4D19B
:102C400070BD000080E100E080E200E018E400E0F8
:102C5000101100207372635C736F635F7369676E3A
:102C6000616C6C696E672E63000000003C00002000
:102C700010B5EFF31080C407E40F72B6D648417860
:102C8000491C41704078012801D110F0C9F9002C8D
:102C900000D162B610BD70B5CF4CE07800280AD1E3
:102CA0000125E570FFF7E4FF10F0C2F9002804D019
:102CB000002010F095F9002070BDC848657145608E
:102CC000F9E770B5EFF31080C507ED0F72B6C24C8F
:102CD0006078002803D1C2A18F2014F0B4F9607885
:102CE000401E60706078002801D110F09DF9002D21
:102CF00000D162B670BD10B5B748C178002904D0C4
:102D000000214171C170FFF7DCFF002010BD10B53C
:102D1000044610F08DF9B049C978084000D0012070
:102D20002060002010BDF8B50246AB4C0026A6710D
:102D30000820042101251027130014F082FA0D0841
:102D40000A0C0E101214161E2621232528002571A8
:102D500022E0022001E021711EE020711CE02771B9
:102D60001AE02020F9E7012616E0FFF781FF10F0B6
:102D70005FF90028FBD002260EE02171A5710BE05F
:102D80002771FBE7202000E040202071F6E7FF20BC
:102D900093A17E3014F057F910F056F9002809D0AD
:102DA00010F058F9B04205D1304610F056F900281D
:102DB000FAD024E001208007C5608D4A00215160CF
:102DC0008C4A9661854B02225A6085608A48036965
:102DD0000569DB43DB06DB175B1C10273D43056100
:102DE000834D00E020BF6F68002FFBD0002B03D184
:102DF000076910239F430761784882606960A07962
:102E000000280CD010F014F9054610F071F87B4A38
:102E1000002D02D0A260E06001E0E260A060002E20
:102E200001D100F0B1F8F8BD10B5044610F006F974
:102E3000002805D068490120C8704A78521C4A70A1
:102E40002046FFF770FF10BDF8B5694FB868002540
:102E5000012802D1BD6010F0C3F87868012800D1C4
:102E60007D60386801265C4C012814D13D60607992
:102E7000002803D0002010F0B3F8657120780028F6
:102E800009D010F0D5F8002805D05948C03886631D
:102E900000060661A670386901282CD13D6100F05A
:102EA00068F8012080074661A079002815D010F04D
:102EB000BFF8009010F01CF80099002901D0E168DB
:102EC00000E0A168411A022901DA8A1C13DC00998A
:102ED000002901D0E06000E0A060FFF7C9FE10F01B
:102EE000A7F8002806D04248C0388663000606616D
:102EF000A67000E02670F868012819D100F039F8B2
:102F000000F037F800F035F8A078002804D1FF2051
:102F100033A1053014F097F8FD60A5702570FFF718
:102F2000D0FE0FF05CFB002802D03148C038C663E9
:102F3000F8BD10B5284CE078002801D110F074F8E5
:102F400001208107886100F014F8A07800280BD0D8
:102F5000274CE068002803D110F07FF80028F8D152
:102F60000020E06000F005F800201C49C0438860A4
:102F700010BD08B55020694608806A461088411E79
:102F800011800028F9D108BDF8B5144819278760C9
:102F9000174900200860C86010F04AF8BD070124F6
:102FA0000D4E002805D01248C03884632C61B470DF
:102FB00000E03470FFF75CFE084847600D49307947
:102FC0008863FFF7D6FFAC61FFF7D3FF0849002005
:102FD00008616C61F8BD0000400000200003004063
:102FE0007372635C736F635F636C6F636B2E6300FC
:102FF000000100400005004000ED00E0FFFFFF7F02
:1030000010FFFFFFDBE5B151008001005E00FFFF14
:1030100003B40148019001BD09000020F0B5FA4851
:10302000FA494088FA4F95B0884207D0787900284D
:1030300002D0002015B0F0BD1120FBE73B2008A90D
:10304000087369460BA80EF0E0FF002803D0F1A139
:10305000A22013F0F8FFF34E00246D4630E028194B
:103060001490807DC10706D0400704D46000401949
:10307000C0880EF024FD787900281FD01498807D38
:1030800080071BD560004019C088002206210EF081
:1030900035FD002812D03C2108A8017360004019BA
:1030A000C1886846C18569460BA80EF0AEFF0600D0
:1030B0000AD0D8A1B62013F0C6FF05E0641CE4B224
:1030C00068460079A042CAD83046B3E770B50E46CC
:1030D00000211C4619801546030014F0B2F807239E
:1030E000050B1711231D23002246294630460EF0FA
:1030F0002BFB70BD2246294630460BF095F970BD7A
:1031000022462946304602F0E8F870BD224629469C
:10311000304603F076FD70BD22462946304600F069
:1031200011FC70BDFF20BBA10A3013F08CFF0320FF
:1031300070BD10B5030014F084F8090609060C0CE4
:103140000F0F060612000BF036FB10BD0EF0D7FA7B
:1031500010BD04F0B1FE10BD06F012FC10BDFF2042
:10316000ACA1FC3013F06FFF10BD3EB5AE4AA64CCB
:103170005168926801920091AC496A461181AC4A4B
:10318000207010460823092124380FF083FD002504
:10319000A8480FF09DFD6D1CEDB2092DF8D3012359
:1031A0001A4602A9A4480EF0E8FF002804D0FF2028
:1031B00098A1283013F047FF9D4907200122803154
:1031C000000204F014FF002804D0FF2091A12B304E
:1031D00013F039FF00211E22084604F0C7FA0BF055
:1031E00064FC0222242195480EF0C8FE9348012277
:1031F0002C214C300EF0C2FE90490B20B03906F065
:103200001BFC002804D0FF2082A13C3013F01BFFE0
:103210000EF03DFA02F0B7F96B460022082188A0B3
:103220000BF088FB002804D0FF207AA1423013F075
:103230000AFF012002F0C9FC002804D0FF2075A17C
:10324000443013F000FF6D21C900714813F0DBFD1D
:103250006F49754A0020135C0D18401CC0B2EB701A
:103260000428F8D3002060606070401E60803EBD7E
:1032700070B5764E0546706A94B00C46401C04D179
:10328000B06AC0430004000C0BD0306AC007C00F06
:103290002870706A13F0CAFDB06A2071000A60716C
:1032A00014E02B206946087009A968460EF0ADFEAF
:1032B000002804D0FF2057A1683013F0C4FE01207D
:1032C000287006220AA9204613F03EFD287800281F
:1032D00016D06079C02108436071172069460870D4
:1032E00000A806222146023013F02EFD09A96846E7
:1032F0000EF08BFE002817D0FF2046A17D3011E094
:1033000032206946087000A806222146023013F0D8
:103310001BFD09A968460EF078FE002804D0FF20A6
:103320003CA1893013F08FFE14B070BDF0B5474C4E
:103330000646206895B00D463746401C08370028E1
:1033400008D16068401C05D1A068401C02D1E0682B
:10335000401C11D02068314613F068FD6068311DB3
:1033600013F064FDA068394613F060FDE068314653
:103370000C3113F05BFD25E02B206946087009A98C
:1033800068460EF042FE002804D0FF2021A1A8309C
:1033900013F059FE08220AA9304613F0D5FC2B2061
:1033A0006946087009A968460EF02FFE002804D06F
:1033B000FF2018A1AF3013F046FE08220AA93846B4
:1033C00013F0C2FC20692E46401C0836002808D1A4
:1033D0006069401C05D1A069401C02D1E069401C15
:1033E00036D02069294613F021FD6069291D13F0AC
:1033F0001DFDA069314613F019FDE06929460C3125
:1034000013F014FD16E6000034000020FFFF00005A
:103410007C0C00207372635C686F73745F636F72FF
:10342000652E630003300000747301003202000057
:10343000C802002033310000480A00209410002008
:103440006E524635313832320000000080000010E4
:103450002B246846047009A90EF0D7FD002804D07B
:10346000FF20F849CD3013F0EEFD082209AF0AA97C
:10347000284613F069FC6846047009A90EF0C5FDE2
:10348000002804D0FF20EF49D43013F0DCFD0822DF
:10349000391D304613F058FCCCE510B5EA4CA07845
:1034A000092803D3E749E94813F0CDFD20786021CE
:1034B000484300190830002101704178E722C9080B
:1034C000C900C91C11404170E14A0121517010BD71
:1034D00070B5DF4C607800280ED0DB4800250178FD
:1034E000491CC9B20170092900D105708178491CB5
:1034F00081700FF070FD657070BD70B5D44C0546DD
:103500006068002804D0D148CE49293013F09BFDD3
:10351000656070BDCE494880704770B5CC4DCA4ECD
:10352000FFF7BBFF69680446002907D06022FDF75A
:103530004BFEFFF7CDFF00206860F1E730790028EF
:1035400057D0C4480EF02AFD6060002804D1BF485F
:10355000BC494C3013F077FD60680EF07EFD00280A
:1035600010D020460AF006FE6078010707D5C00893
:10357000C000401C60703079401E30712BE0B548AF
:1035800061682EE0B34861680EF011FDFFF746FD5B
:1035900000282ED1AF484C380EF000FD60600028A6
:1035A00004D1AA48A7496F3013F04DFD60680EF0B2
:1035B00058FD002818D060680088608020460EF012
:1035C0002FF96078010709D5C008C000801C607021
:1035D0007079401E7071FFF77BFFA1E79D4861681D
:1035E0004C380EF0E4FC9BE79A4861684C380EF0CA
:1035F000DEFC70BD0146974810B54C380EF0D7FC84
:1036000091494879401CC0B24871012803D19048C3
:103610000078FFF7CDFA10BD70B504468E48164607
:103620000D46814204D155208649C00013F00BFDA0
:10363000012E05D085488349AD3013F004FD70BDDF
:103640006620207000202072A5810120A07370BD2B
:1036500070B516460D46040001D1FFF71EFF662126
:1036600001700121017229680161A98881820673B4
:10367000002C01D1FFF72CFF70BD07214907012263
:103680004118D203914201D31020704708210170E4
:1036900000207047F8B50546072040070F460A1876
:1036A0000121C9038A4209D2002D02D0281888427C
:1036B00004D2E81C80088000A84201D01020F8BD88
:1036C00061488178002911D03988009141786022C1
:1036D00051430C18083420783B460007000F0022A5
:1036E0002146FFF7F3FC060004D015E000203880E7
:1036F0000520F8BD002D13D039880098814201D9EA
:103700000C260DE020783B460007000F2A46214694
:10371000FFF7DCFC060005D00C2E01D0002038801D
:103720003046F8BD484D6878401CC0B26870092822
:1037300001D100206870A878401EA8706178480701
:10374000400F022810D00128EAD1424861680EF0EB
:103750002EFC2879401CC0B228710128E0D13C48D9
:103760000078FFF725FADBE7C806D9D46068FFF7D1
:1037700041FFD5E7394A10B590420FD301239B048E
:10378000C21A374B9A4209D3364B984206D20722C7
:10379000520701238A18DB039A4201D3102010BD7F
:1037A00006F083F910BD2D4B10B599420ED30123BD
:1037B0009B042B4CCB1AA34208D32A4B994205D227
:1037C000E3020124D318E403A34201D3102010BD67
:1037D000022803D0102801D0092010BD06F08BF973
:1037E0000028FAD0052010BD70B51C4B984213D3A9
:1037F00001239B041A4CC31AA3420DD3194B9842C0
:103800000AD2E40201230D19DB039D4204D2002AEF
:1038100004D014199C4201D3102070BD06F091F918
:103820000028FAD0072070BD10B5044607204007D5
:1038300001212018C90394B0884215D3102014B078
:1038400010BD0000143400007C0C00200A020000AF
:1038500034000020E0100020FFFF00000080010085
:103860000000FC1F008000200F2008A90873694693
:103870000BA80EF0CAFB0028E1D16846007A207040
:1038800068464089608068468089A0800020D6E72D
:1038900000B595B0002802D0072015B000BD382132
:1038A000684601700021817009A90EF0AEFB002866
:1038B00003D03E493E4813F0C6FB0020EDE710B5AB
:1038C00000290FD00722520701238C18DB039C42EA
:1038D00003D20C68A2189A4201D31020B0E78A885C
:1038E000002A02D001F09BFEAAE70920A8E7314A8E
:1038F00010B5914208D3012292042F4B8A1A9A42A2
:1039000002D32E4A914201D3102099E70246203A71
:103910001F2A02D80BF076F892E7072090E70722DB
:103920005207012310B58A18DB039A4201D31020F5
:1039300086E70246203A1F2A02D80BF090F87FE76C
:1039400007207DE7F7B505460078002700090C46FB
:103950003E46062803D01549C22013F074FB287A8E
:1039600000280DD0012813D01049E32013F06BFB81
:103970000298002C068001D0278066800020FEBDC2
:1039800002270926002C0ED0A889A080A87B08E079
:1039900003271426002C06D02869E060A88A20821C
:1039A000287B2072E4E702980680E7E714340000E1
:1039B00096030000008001000000FC1F0080002032
:1039C0008107C90E002808DA0007000F08388008B0
:1039D0002C4A80008018C06904E080082A4A8000D0
:1039E00080180068C8400006800F704710B50D2091
:1039F000FFF7E6FFC4B20420C043FFF7E1FFC0B207
:103A0000844203D021A11A2013F01DFB10BD012117
:103A1000234A48031060234B00221A60224A516057
:103A2000224A1060224A11601D498039086070479F
:103A300001211B4A480310601D4A5160194A0021A8
:103A400011601A490860704710B5164908680128C6
:103A500004D00EA1562013F0F6FA10BD1548806868
:103A60000022C0B20A600EF011FF10BD10B50D4863
:103A700001680029FCD0FFF7E7FF01200B49400354
:103A8000086010BD00ED00E000E400E07372635CCC
:103A9000736F635F68616C5F726E672E6300000016
:103AA00080E100E000D1004000D3004080E200E06F
:103AB00000D0004000D5004030B40121BC48C9020C
:103AC0000160CD1005604A030260BA4803681B021A
:103AD0001B0A036004680023240A24020460B64819
:103AE0000468240A24020460B44801244460846009
:103AF000B34C23606360A360B24B19601D601A6011
:103B0000B14B19601A600121016030BC704710B4DC
:103B10000121A748CC0204600A0202600B06036080
:103B2000A64841608160A64900200860486088601E
:103B3000A44804600260036010BC70470121A148E2
:103B4000C9020160C91001607047002805D0012832
:103B500005D0022805D19D4870479D4870479D4873
:103B6000704710B59CA18B2013F06DFA002010BD9A
:103B700070B500219F4CA04DA04A914B002808D061
:103B800001281DD0022822D093A1B32013F05BFAA4
:103B900070BD01200004A060A86011601960984BFE
:103BA00042109A60974A9060814A001210609648CD
:103BB000016087480160954801609548017070BDBB
:103BC00001204004A060A8605160596070BD0120D0
:103BD0008004A060A8609160996070BDF8B59446BB
:103BE000844A854D00240127754E002808D00128FD
:103BF00036D0022844D078A1E82013F024FAF8BD8A
:103C0000891E0902090A012000049060346068607E
:103C10007A4A1160012B21D000217D4A7D4B5170E1
:103C200061463D31DC63DF637B4B5C6002249C605A
:103C300004241C61744B196074490F60614B891531
:103C40001960704B58606048016075487349C160E5
:103C500086606B49600348601770F8BD0121DCE79E
:103C600001205C4E40046F4F012B04D13460506042
:103C700068603960F8BD9060346068603960F8BD94
:103C80000120524E8004684F012BF4D1EEE76748C3
:103C90004068704770B54A4D28680026554C012889
:103CA00006D1A068C00303D501200004A0602E60E7
:103CB0006868012809D1A068800306D50120400466
:103CC000A0606E60012010F0DCF9A868012809D11D
:103CD000A068400306D501208004A060AE600220E9
:103CE00010F0CFF970BD10B549490878002818D0F8
:103CF0000120434AC0039060424A400090602C4A31
:103D000000121060404A00201060314A10603F4AA3
:103D1000106008704A78002A02D0487010F0B1F99B
:103D200010BD0320FAE701204149000608607047F2
:103D30000120244900060860704701203C494005E5
:103D40000860704701201F494005086070473149ED
:103D50000020C86388151B4908607047410A354A2E
:103D6000C005C00D5043801C5143400A08187047DD
:103D700010B4314C430B63431B0C5C020C602D4CA4
:103D80006343C31A2D485C0258432A4B400D4343FA
:103D9000E31A0124DB0324041B191B1613700A68A1
:103DA0001018086010BC704710B510F05BFA10BD19
:103DB00080E100E008E400E018E400E000B000402A
:103DC00040B1004080E200E000E100E048B1004086
:103DD0004081004044B100407372635C72656D5F66
:103DE00068616C5F6576656E745F74696D65722E6F
:103DF0006300000000B3004040B3004040B5004005
:103E000000F50140008300404085004000820040F2
:103E100050000020C08F004000850040008000401E
:103E200080F5014044B5004048B5004000B5004071
:103E300000E200E0093D0000378600006F0C010041
:103E400010B510F0FBF910BD00200449C863012033
:103E500001218140024A116000BF7047C01F00402D
:103E600080E200E0F8B5F94A022111603F21F84DE7
:103E70000902A96001218903A960F6490026CE63E1
:103E80000127CF63F449C96A09070DD4F34AD36AFD
:103E9000F3494B62136B8B62536BCB62936B0B6377
:103EA000D26BCB051A434A63EE4C002825D001287B
:103EB00027D0FF20ECA18A3013F0C5F8EE48A063AC
:103EC000FF20043060632763EC4903200860206111
:103ED000EB4996204860EB49182008560B22D24344
:103EE000811A90423DD011DC1C3141D00A293FD0CB
:103EF00014293AD0182911D135E0E3486061E3482C
:103F000002E0E3486061E348A061D7E7083026D0CB
:103F1000042822D008281ED00C281AD0FF20D2A1B5
:103F2000BA3013F090F8DD4CDB48E062DC48A06268
:103F3000DC486063DC48206310F099F82061DB49BD
:103F4000022008600320C0026860D9491020486040
:103F5000F8BD04200AE0E660E5E7FC2006E0F82072
:103F600004E0F42002E0F02000E0EC20E060DAE77A
:103F7000D820E060D7E770B5C24C00256570257089
:103F8000012065616072A572E072CA4865770573A9
:103F90006562C948256311F0D8FF002804D0FF20CE
:103FA000B1A1553013F04FF825760020FFF75AFFE6
:103FB00070BD10B50C460146C04813F035F9B14844
:103FC000047210BDAF48407F7047AE4A5170107008
:103FD000704770B50D460446082904D9FF20A2A1F8
:103FE000F53013F030F80022002D0CD9B4489100C0
:103FF000635809180B6053001B191B8C0B62521C71
:10400000D2B2AA42F3D3206BAE49086070BD10B59E
:1040100004460B22D2430C309249944222D008DC51
:104020001C3025D00A2823D014281FD0182809D1E5
:104030001AE02046083013D004280FD008280BD0EF
:104040000C2807D0112088A1400112F0FCFF8D48F8
:10405000047610BD04200CE000200AE0FC2008E0FB
:10406000F82006E0F42004E0F02002E0EC2000E07C
:10407000D820C860EBE78F48007A70477949C2784A
:104080004A6202461378184653781B021843937805
:10409000D2781B041843120610430002C86170470F
:1040A000252808D0262808D0272808D041000A282B
:1040B00007D8091D06E0022105E01A2103E050217E
:1040C00001E0891DC9B2674A91606D494861704736
:1040D0006C4948617047F8B50D46040005D0012CC5
:1040E00003D061A1784812F0AEFF6648634A84723B
:1040F00003211160564F9115B9602B460125734A73
:10410000002B09D0654E012B0CD0022B15D056A1E7
:104110006F4812F098FFF8BD002C01D05560F8BD33
:104120001560F8BD002C06D06A4A7261026B0A4322
:1041300002637960F8BD7261F8E7044640690028BF
:1041400004D1992048A1800012F07DFF6169606A66
:104150004018614988606148306261487062216B33
:1041600000150143216378605E48856051480573FE
:10417000F8BDF8B541490D680C206A4610704C4FE7
:104180007868C006C40F1026BE600020086056493B
:1041900008614E4B01221A613A4B5A729872DA72D8
:1041A0000BE000BF00BF00BF00BF00BF00BF00BFEB
:1041B00000BF6B461A78521E1A706A461278002A9F
:1041C00002D00A69002AECD008616846007800280D
:1041D00003D125A1454812F036FF28480560002C80
:1041E00000D07E60F8BD01460A7810464A78120277
:1041F00010438A78C9781204104309060843000264
:104200001849000AC86370471049022008607047C7
:104210000E49022008602549086070473449022091
:104220000860704733490870704710B5224811F094
:1042300094FE002803D00CA12F4812F004FF10BDFB
:1042400010B51D4811F0A1FE10BD000080E100E096
:1042500000F50140C01F004080000010C0000010A9
:1042600000170040001500407372635C68616C5F6A
:104270007263732E630000005B06000000120040B2
:104280004015004030110020060102002500030205
:10429000050103001F0003024480004040F5014077
:1042A00004110040408000401011004080E200E016
:1042B0000013004050110020641100203211002032
:1042C000001600404016004041020000001000406F
:1042D0007202000004100040408500404881004008
:1042E0001010004000050040001100408F02000047
:1042F00000E100E052000020B7020000FE494860E3
:10430000704770B5FD4C0546606AA84203D3FC496E
:10431000FC4812F098FE606AFB4B291A0022E1600B
:104320005A604018F9494860FA48F949C161191DB5
:104330008161216B401501432163F749486070BDDD
:10434000EE48C221C160F04A00215160416AEF4A43
:10435000C2315160EF49EE4ACA61F04A8A61026B8C
:1043600049150A430263EC48416070470121EA485D
:1043700049028160E148026B8A4300210263C16007
:10438000E24841607047E64801214160C160DE4972
:1043900000204860DD494860D849486270473F20A6
:1043A000DD49000288607047DE4940200862DE492E
:1043B0000A6802430A607047DB4801684022914363
:1043C0000160D849002008627047D7480168102270
:1043D00091430160D549012088617047D44900208C
:1043E000C861D14801681022114301607047CE486E
:1043F0000168102291430160CC4901208861BF49C6
:10440000002008747047CA490020C861C648016886
:10441000102211430160B949012008747047C44952
:10442000CA69012A01D000207047BE4A926852062C
:10443000520E524202700020C8610120704770B5D0
:104440000C00054603D1AE49BA4812F0FCFDE00766
:1044500005D0012C03D0AA49B74812F0F4FDA748B3
:10446000002D4572C472B04807D0012D0AD01D201E
:10447000A349400112F0E7FD70BD01680422114319
:10448000016070BD016808221143016070BD70B504
:104490009A4900224B7A002B00D001238B72A24C48
:1044A00003232360A3159C4CA360CB7A9C0701D502
:1044B000440712D4DC0606D5A04C657A002D02D044
:1044C000A47A002C09D01C0702D50C7F002C04D143
:1044D0005B0703D5497F002900D101220221084052
:1044E000104301D0FFF745FE70BD94480121C17211
:1044F0007047F8B5914E8149337B0024864A086B9A
:10450000002B27D0151517469560A8430863FFF7C1
:1045100030FE8748C4600461446044618461BD60CA
:10452000874884607548807A00280BD001280DD018
:104530007349844812F087FD834801688907FCD5D8
:104540003473F8BD794901200860F5E77749012007
:104550004860F1E7704A9060002008636A4840684C
:10456000012809D00023724F3869012806D00024A1
:10457000887A002804D006E00123F4E74024F7E716
:10458000FA68012A04D000222243002802D004E065
:104590002022F9E77C68012C06D000240D46144344
:1045A0006A49012802D007E01024F7E70A68012AC7
:1045B00002D1FA68012A04D000222243012802D045
:1045C00007E00822F9E70968002902D1F968012902
:1045D00004D000211143012802D005E00421F9E7AD
:1045E000002B01D0022200E000220A43012802D160
:1045F0007868012832D00024554814430168090620
:10460000090E02D07969012900D0002131720068B9
:104610000006000E02D0B869012800D00020707298
:104620004048006A002803D000F010FA012800D0AA
:104630000020B0723E480021C160016141604161CB
:104640008161314841603148F17243682B620068F2
:104650006862A97A284F012902D00AE00124CBE739
:104660006978002905D07A6812780A402978914340
:104670000BD000212977E10709D0184607F0CFFDBC
:104680000121686A07F0D9FD0AE00121F2E7A106DD
:1046900001D5022102E0A10702D5002107F0CDFDDE
:1046A000796806220931A81C12F021FB002807D1E5
:1046B000287A79680978C909884201D1012200E085
:1046C00000226A77687A0021002800D00120A872B1
:1046D00015480323036083150F488360E87A830736
:1046E00001D563073FD4C30605D5737A002B02D0EA
:1046F000B37A002B37D02DE0001500403011002098
:1047000068420000C7020000408100404085004030
:104710001010004040F5014000F501404481004088
:104720000080004040150040001200400010004092
:10473000001100408A0300008E0300005011002089
:10474000000500408203000000E200E00014004089
:1047500040160040030702D52B7F002B03D14007F2
:1047600002D5002A00D10121204602221040084330
:1047700001D0FFF7FEFC5048C2270078002819D06E
:1047800001282CD002283FD003285ED099204B4925
:10479000C00012F058FC287C0028A87A73D01021A1
:1047A000012867D0464802688A43026045490120D3
:1047B000886177E0A00701D506F067FD200703D5E3
:1047C0000120EF6006F0ACFD600703D50020EF602C
:1047D00006F0A6FDA006DED506F0F0FCDBE7A0079C
:1047E00001D509F065F8200703D50120EF6008F036
:1047F000CCFF600703D50020EF6008F0C6FFA006DD
:10480000C9D508F042FFC6E7A00703D5BF20044082
:1048100011F052F9200705D5BF2004400120EF60B8
:1048200011F049F9600705D5BF2004400020EF6072
:1048300011F041F9A00603D5BF20044011F03AF968
:104840006006A8D511F039F9A5E7A00701D511F048
:1048500037F9200703D50120EF6011F030F9600728
:1048600003D50020EF6011F02AF9A00693D511F0CE
:1048700025F990E7144A0020D061114802680A43E4
:10488000026002E0FFE701280CD1E868002809D0A7
:10489000696A09180D484160296B40150143296375
:1048A0000B494860F07A002800D14AE609490868B7
:1048B0008007FCD5F8BD00005200002068420000CF
:1048C00000120040001000400011004040850040F0
:1048D00000F5014000E200E02E4800210170417027
:1048E000704770B5064614460D460120FCF76CFD76
:1048F00028490120284B08709E60DC601D6170BD56
:10490000F8B504460120FCF75FFD2249012008703C
:1049100021494C60214900264E600921204D890221
:10492000A960204F002C0AD0012C03D01EA14020EA
:1049300012F089FB3E60092080026860F8BD386093
:1049400001208002F9E710B51248017800290ED045
:104950000921134A8902916010494A680021002AFE
:1049600003D0154A1268427000E0417001700020C7
:10497000FCF72AFD10BD07480178002907D0074839
:104980004068002802D00C480068C0B270474078E8
:10499000704700005300002000F5004000F1004087
:1049A00000F5014000F200407372635C68616C5F67
:1049B00063636D2E6300000000F400403B4800215B
:1049C0000170417010218170704770B50646144621
:1049D0000D460220FCF7F8FC01203449344A0870E7
:1049E000E41E14619660556070BD10B50220FCF79E
:1049F000EBFC2E49012008702E4800210160416027
:104A000081602D494014486010BD10B527480178D9
:104A1000002917D00121284A4903916025490B68D4
:104A20000022002B05D04B68002B02D0896800299A
:104A300002D04270102103E0012141701F49096832
:104A4000817002700020FCF7BFFC10BD1748017890
:104A5000002912D01748016800290AD001680029EE
:104A600005D04168002902D08068002803D00020CA
:104A700070470220704701207047407870470B480C
:104A8000017800290FD00B480168002905D0416842
:104A9000002902D08068002801D010207047074804
:104AA0000068C0B270478078704700005500002051
:104AB00000F5004000F1004000F5014000F4004026
:104AC000002803D08178012939D101E010207047F6
:104AD0000188F84A881A914233D01BDCF64A881ABA
:104AE00091422ED00BDC00292BD00320C002081AE3
:104AF00027D0012825D001210903401A07E0012809
:104B00001FD002281DD0FF281BD0FF3801380028F5
:104B100015D116E0FF220132811A904211D008DC33
:104B200001280ED002280CD0FE280AD0FF2806D17A
:104B300007E0012905D0022903D0032901D0002074
:104B400070470F20704700B50A2821D008DC030009
:104B500012F077FB0A1C2024241A24282224261A67
:104B6000102819D008DC0B2816D00C2814D00D28DA
:104B70001AD00F2808D111E011280FD0822807D0B1
:104B800084280DD085280DD0032000BD002000BD55
:104B9000052000BDC94800BD072000BD0F2000BD95
:104BA000042000BD062000BD0C2000BD70B500290A
:104BB0000BD0CB1FFA3B81241E46CDB2112B1BD24A
:104BC000012805D0022806D009E0002010701DE061
:104BD000FF20043001E0FF200330814218D0330071
:104BE00012F02FFB111613131613161613161616A2
:104BF00013131313161316000846FF3881381F28A5
:104C000003D9FF39FE39022902D81570002070BD82
:104C10001470072070BD00B5030012F012FB0604EB
:104C200006040C080A0C002000BD112000BD07205E
:104C300000BD082000BD032000BD00780207120F50
:104C400004D0012A05D0022A0AD10EE0000907D1BA
:104C500008E00009012805D0022803D0032801D06C
:104C60000720704708700020704706207047002812
:104C700007D0012807D0022807D0032807D0072033
:104C80007047002004E0112002E0212000E03120E4
:104C900008700020704738B50C4605004FD06946B3
:104CA000FFF7CBFF002822D1208803218902884307
:104CB000694609788907090D084320806946681C00
:104CC000FFF7BBFF002812D1218803200003814396
:104CD000684600788007800C01432180A87840074F
:104CE000820F2020012A03D0022A03D0072038BDDA
:104CF000814300E00143218088B20105890F08D07B
:104D0000012189038843A9780907C90F890308434A
:104D1000208080B28104890F0AD0A9784004C90696
:104D2000C90F400CC903084320808004800F02D1C2
:104D30002088400403D5208840210843208000209B
:104D400038BD70B504460020088015466068FFF73E
:104D5000A2FF002815D12189A089814210D861685D
:104D6000574E8978C90707D0711E884208D8314646
:104D700012F064F8298009E0FF21FF31884201D94F
:104D80000C2070BDFF30FF300330288060688078D1
:104D9000C007A08903D0314612F050F803E0FF307D
:104DA000FF30033081B22980002070BD10B5137828
:104DB00004785B08E4075B00E40F23431370FD24D1
:104DC00023400478A407E40F640023431370FB24FA
:104DD000234004786407E40FA40023431370F724EE
:104DE000234004782407E40FE40023431370EF24E6
:104DF00023400478E406E40F240123431370DF24E6
:104E000023400478A406E40F640123431370007860
:104E1000BF244006C00F23408001034313700029C4
:104E200006D00878C10701D1800701D5012000E034
:104E30000020C0015906490E0843107010BD30B55E
:104E40000A8803239B0204889A4323059D0F02D1FD
:104E5000A3049C0F01D09B0F00E001239B021A4387
:104E600003230A801B039A4303889804840F02D10A
:104E70001805830F01D0800F00E0012000030243DA
:104E80000A8030BDF3B593B00D000FD01398002801
:104E900018D01221284611F0B4FF03AAFF210120E7
:104EA00003F019FA0024264637467DE0102015B09D
:104EB000F0BD0000022900000128000002300000BF
:104EC000010200000720F2E76846807D01280BD12F
:104ED0006846818A0520C002081A0AD001280AD033
:104EE00002280CD003280CD0042C0ED0052C0FD196
:104EF0000DE0012400E002246846468A08E003240D
:104F000006E068460424478A02E0052400E00624FF
:104F10006846418A1398814246D12C74002E41D0B4
:104F20000DAA0EA9052002920191009010230022E3
:104F3000FF21304603F06FFA002823D16846808EA7
:104F40002A46C0B20EA904F0D6FD00281AD1AE81BF
:104F5000002F27D00DA9052008AE02910090132341
:104F600000220196FF21384603F055FA002809D1A6
:104F70006846808EF11CC01EC0B22A1D04F0BBFD25
:104F8000002801D0032092E708A88178427808021F
:104F90001043E881062C05D16846807DA8726846DA
:104FA000808A2881002082E703A803F09DF9002869
:104FB0008AD0FFF7C8FD7AE7002805D0FE4A01290C
:104FC00003D0022903D003207047518800E0918864
:104FD000814201D1002070470720704770B50C4610
:104FE00005461C21204611F00CFF00202080002DDA
:104FF00008D0012D04D0F1A1F54812F024F870BDBD
:10500000062000E00520A07070BD70B592B0144677
:10501000064601206A461071107453740846083021
:105020000394029048889082FEF737FA0546448040
:1050300017206A469083203600950AAB71780233B8
:1050400007AA01A810F086FA06466878000701D57D
:10505000FEF73EFA002E04D03046FFF7DCFD12B01A
:1050600070BD08A800906846838B04220121204669
:105070000BF065FFF3E710B510F072FC10BDFEB544
:1050800000260546029600780C460827030012F019
:10509000D8F80CFE070C340B717198BCFDD2E2FEFF
:1050A00068680A38FEF7A6FA05E1A888002380B2EE
:1050B0000122032100900DF0B1F80190002C04D0E2
:1050C000C348BEA1513011F0BEFF0198002804D1A1
:1050D000BF48BAA1523011F0B6FF019800990830CC
:1050E0000FF06CFEFEF7D9F90446009860806078F6
:1050F00038436070FEF7ECF9DDE0002C04D1B448D1
:10510000AEA1623011F09FFF6088002301220321CD
:105110000DF084F80090002804D1AD48A7A16530B7
:1051200011F091FF0099002008802A7994461EE032
:10513000C3005B199B6800936B461B881A0708D550
:10514000DA0606D56046C20050192038C08B0880A8
:1051500006E05B0409D50871C2005019C088488078
:105160006078384360700226A5E0401CC0B28445D8
:10517000DED8A0E0E888694608800090002C04D1C1
:1051800093488EA1753011F05EFF2878062814D15F
:105190000098C00B11D060880023012203210DF07C
:1051A0003DF8060004D15D2084A1C00011F04BFF42
:1051B00000203071A88870803BE0607838436070D0
:1051C00079E0002C04D182487CA1913011F03BFFA2
:1051D00060880023012203210DF020F800900028B0
:1051E00004D17B4875A1943011F02DFF0098083050
:1051F00010F008FC0121484002D1E888C00B5AD0C9
:10520000009861880226C180D7E7002C04D170483D
:105210006AA1AD3011F017FF60880023012203213D
:105220000CF0FCFF002804D1694864A1B03011F0F3
:105230000AFF0226C1E7002C04D165485FA1B930FE
:1052400011F001FF0226618801222046FEF7E4F9F1
:1052500001200290B1E7A889002380B20122032136
:105260000CF0DCFF0746002C04D0CD2053A18000B9
:1052700011F0E9FE002F04D1554850A1CC3011F0B7
:10528000E2FE686800902889694601E006E00DE0CA
:10529000888001220020FEF7DBF90CE0002C8CD185
:1052A0004B4846A1D63011F0CEFE86E7D12043A16F
:1052B000800011F0C8FE002C0DD0607800070AD5E0
:1052C0000298002807D184202070204658222946C1
:1052D0000830FBF779FF3046FEBDF7B50C460546B2
:1052E000007A224688B00A320292921C0492002769
:1052F000811E16323E4601920B0011F0A2FF08F704
:1053000005F639398FD3F5F6688800230122032189
:105310000CF084FF0190002804D12D4827A1F4301F
:1053200011F091FE01980088002802D0522707262C
:1053300021E151271E26002C6FD06888A080012013
:10534000A071019802990079C0004019C089FFF747
:1053500099FD00287ED101980079C0004019C089CC
:10536000208101980079C0004019408AA08302E1A1
:10537000698A0091062830D1E889C00B2DD00846F3
:105380002230512786B2002CD6D0A8890499FFF785
:1053900079FD00285ED16888A0800220A071A889CC
:1053A00020810120A072288AE08300982084696906
:1053B000009A01980EE00000681100207372635C8F
:1053C00067617474735F636F72652E630000000021
:1053D0006902000011F0B8FCCDE0084620305027EB
:1053E00086B2002CA8D0A8890299FFF74BFD0028AF
:1053F00056D16888A080A889E080287A06280AD03B
:1054000002202072288AA0830098E08320466969E0
:105410002030009ACEE70120F3E79AE06888002365
:10542000012203210CF0FAFE0690688A009006988B
:10543000002804D10F20FE49800111F004FE0698D7
:10544000083010F0DFFA0121484002D1E889C00B92
:1054500025D000E024E000985127223086B2002CAD
:1054600078D06888A080A8890499FFF70BFD0028F0
:1054700016D10220A071A88920810420A072288A58
:10548000E083009820846969009A019811F05CFC1F
:105490000699002008710698A98941806BE00320D5
:1054A0000BB005E5688808F059FD01906888002375
:1054B000012203210CF0B2FE00900198002804D1D3
:1054C000FB20DB49800011F0BEFD0098002803D1CD
:1054D000D749D84811F0B7FD0098D749C08888420D
:1054E00005D05127222604E01EE03FE035E050279A
:1054F0002026002C2ED06888A080502F07D00220B4
:10550000A0712146287B0831FFF768FD33E0287B36
:10551000A11DFFF763FD6A88002300990198FFF73A
:1055200074FD0028BCD126E0C449A889C9888142FD
:1055300006D154270626002C0CD06888A0801AE0DB
:1055400053270826002C05D06888A080A889E08011
:1055500011E0FFE70A98068013E055270726002C84
:10556000F8D0A889A0800020A07104E0B148B0491B
:105570004D3011F068FD0A98002C068001D027807C
:10558000668000208CE7AD4900200870704730B578
:1055900085B00C4601F0FEF8054600202080207101
:1055A0006080401EE0802046294608300FF0FAFB5C
:1055B0006A462946012002F08EFE10240CE068465F
:1055C0008088010708D5204369468880C888FF2362
:1055D0002946019A02F0A9FF684602F085FE0028DC
:1055E000EDD005B030BD0A46014610B51046083072
:1055F0000FF0ECFB10BD70B5002305461A460321E1
:105600000CF00CFE040004D18A488949873011F05F
:105610001AFD2046294608300FF0D0FB70BDF0B5CA
:1056200091B00C46074608F099FC050005D0287893
:10563000222804D2082011B03AE48148FBE7002375
:105640001A46032138460CF0E9FD0646002C02D02C
:10565000A08800280CD00120694608710220087437
:1056600000204874002C05D0A0880883206802E040
:105670000920E0E708830590304608300397029040
:10568000FDF70BFF044647801720694688832035C5
:1056900000940AAB6978023307AA01A80FF05AFFF9
:1056A00005466078000701D5FDF712FF002D03D0F5
:1056B0002846FFF7B0FABEE708A800906846838B3B
:1056C0000422012138460BF03AFC0021C943F18045
:1056D000B1E7FFB585B00E9E7788384608F03EFCEE
:1056E000054600231A46032138460CF097FD044670
:1056F000002D04D14F484E49E73011F0A4FC002C96
:1057000004D14C484A49E83011F09DFC089869469C
:10571000C1C10834039405A80DC8203569780FF07D
:1057200087FB09B0F0BDF0B50446002099B00D46E6
:1057300001460D9010A881811646018181803F4A63
:10574000684691800185818710A80180684681851F
:1057500081841078012808D0022806D0032804D0BC
:10576000042802D0082019B0F0BD3648844219D36D
:1057700001218904344A631A934213D3334FBC4244
:1057800010D285420ED36B1A93420BD3BD4209D27D
:105790006368002B13D0834204D3581A904201D37C
:1057A000BB4201D31020DEE760892189884203D8FB
:1057B00001225202914201D90C20D4E70D9016AA81
:1057C00010A92846FFF7BDFA0028CCD10AA9206904
:1057D000FFF761FA0028C6D1206900280CD0607854
:1057E000800700286846008D03DA8004800F5FD0B0
:1057F00002E08004800F5BD109A96069FFF74BFAD2
:105800000028B0D16069002808D06846818C08055E
:10581000800F01284CD18804800F49D00BA9A069C2
:10582000FFF739FA00289ED16846008D80060FE008
:10583000BC530000ED030000FFFF000068110020D2
:1058400001300000008001000000FC1F00800020EB
:105850002ED46846808C80062AD46846808D8106C6
:1058600026D4A169002906D00105890F01291FD17D
:105870008004800F1CD0E068002804D00078002845
:1058800016D01C2814D204AA611C2046FFF78EFAF9
:10589000012189026846818701278773F94981813F
:1058A00004AA033217A9286804F04BF9002801D094
:1058B000072058E710A8007F15A9C01CC2B200201D
:1058C0000C920090FF32034602910190FF320332A6
:1058D00003A80F9902F062FC002827D110A9888A3A
:1058E0000E902A892969E84801910092029010A936
:1058F0000A8B6B892868109902F050FC01007DD159
:10590000E1480025001F818868464174090A8174B6
:10591000052004A902950091019010A82A46FF21B4
:10592000808A0C9B02F09FFB002802D0FFF70BF946
:1059300019E76846007C0322C109002092029043C7
:105940000122920280181490002927D0014668464F
:1059500081872921877309028181058608A8007C37
:105960000023410860784900C007C00F014308A820
:105970000174FD2001406078C44A8007C00F4000D8
:10598000014308A8017402200CA90090019102951E
:1059900003A80F9902F002FC01002FD160680028D3
:1059A00028D0206900280DD10AA910A8FFF747FACE
:1059B0006078800706D46946088D0321090388436F
:1059C00069460885AF4869468F73FE308881AF49C4
:1059D0002089891E11F032FA0A4661680D9811ABD0
:1059E000009002930191002303A80A9902F0D6FBCC
:1059F000010003D12078C10603D400E085E08006D1
:105A00002AD568460586606900280DD109A910A825
:105A1000FFF715FA6846818C03208002814301203C
:105A200080020918684681846946888CC821084329
:105A30006946888493488F73FF30888112AA0CA925
:105A400002200292019100900023904A03A8099934
:105A500002F0A4FB010058D12078C00729D0684685
:105A60000586A06900280DD10BA910A8FFF7E7F95A
:105A70006846818D0320800281430120800209183D
:105A8000684681856846818D40200143684681854E
:105A900087737F49818113AA0CA902200292019188
:105AA00000900023794A03A80B9902F077FB0100CC
:105AB0002BD1E06800282CD068461499818774495E
:105AC0008773491C8181E26808A8117801745178B4
:105AD0004174E0684122418868464186E0680023BD
:105AE000017908A80175E068D200C18808A841754D
:105AF000090A81750CA8072100910190029503A85D
:105B00000F9902F04BFB010003D00E9800F046FE07
:105B100029E65D480321001F0170002E0AD080880D
:105B2000308010A88088708010A80089B08010A8EC
:105B30008089F080002016E630B501248BB0154630
:105B40000B46012802D002281CD104E0684605213A
:105B50008473C90203E04B4968468473891E8181BE
:105B6000002B12D0032100208902884301218902E1
:105B700040186946888405AA04A9184603F0E1FF85
:105B8000002804D007200BB030BD1020FBE76A4688
:105B9000127C3D480092801E05A9FF3201910290BF
:105BA000FF320023033203A8099902F0F7FA002814
:105BB00002D0FEF7C8FFE6E73348001F002D01D0F2
:105BC0004188298004700020DDE7F0B593B00746D6
:105BD000012608A886702F4968460184002208A97A
:105BE0003046FFF7A9FF00283CD1274D00242D1F88
:105BF000002F35D01C21684611F005F96846017860
:105C0000202001436846017008A886702249684632
:105C1000018411940794817FF9200140891C684612
:105C200081770020014668460177002001466846DA
:105C3000417704218185C485018607A80A9011A8AF
:105C40000D9008A809900EAA09A96846FFF76BFDF8
:105C5000002807D16846008FE8806846808F288139
:105C60002C70002013B0F0BDF7B507490026091FBE
:105C70000A789EB0012A11D0022A0FD0082021B044
:105C8000F0BD0000032800006C110020030200009A
:105C90000329000001180000052A00004A888242FA
:105CA00001D00620EBE71F98824201D10720E6E7EA
:105CB000012210A98A75F7488882002003239B02DD
:105CC000014699439302CB1810A90B8669468A8135
:105CD000F14ACA8118A9887110A9888419A9049168
:105CE0006946CA820690FF20087503A802F01FFBD0
:105CF00000242546274608AA052103A802F01AFB1E
:105D0000002810D082286FD1002C6FD0002D6DD0CC
:105D100010A88480C5800021017418A8807B11AC74
:105D2000012865D06DE008A88079002F21D00128D6
:105D300057D16846818CD74881421CD113AA0DA93E
:105D400005206B4607C36846408C10230022FF21C4
:105D500002F061FB002868D110A88089042801D0D6
:105D600006284CD16846818E1F98814239D10F2078
:105D700085E7012835D16846808C0521C902884213
:105D800002D0491C88422CD1C44841886846408CC6
:105D9000814201D1012700E00027002C01D0002D15
:105DA00010D01F9988421CD113AB0DAA05216E4655
:105DB0000EC6044610230022FF2102F02CFB00280F
:105DC00033D101E035460CE010A88089022801D0CB
:105DD000102814D1C0B21BAA0DA903F08CFE002814
:105DE0000DD16846468C86E71FE0FFE7052046E7B1
:105DF000221D14A91BA803F0A4FE002801D0032033
:105E00003DE710A8007C0023001DC2B210A8027458
:105E1000209802900194009215A81C9902F0BEF9F6
:105E2000002802D19D4902220A70FEF78CFE26E767
:105E300010B50B46401E86B084B203AA0021184656
:105E4000FEF7B4FF04AA052103A802920191009075
:105E500001230022FF21204602F005F9044668468E
:105E6000008A012803D08E498E4811F0ECF82046B4
:105E7000FEF769FE06B010BDF0B5884F04463878CD
:105E800087B00E46032804D0042802D0082007B0AB
:105E9000F6E604AA03A92046FEF753FF0500F6D153
:105EA000208905AA21696B4607C369460A8A638966
:105EB0002068039902F072F9002802D0FEF743FE31
:105EC000E5E7002E02D06846808A308004203870D2
:105ED0002846DCE738B50C00054609D000236A46A1
:105EE000FF2102F0FAFA002804D0FEF72CFE38BD9C
:105EF000102038BD69462046FEF7CDFE0028F8D1B7
:105F0000A078FF21C307DB0F2846009A02F00DFBA3
:105F1000EBE73EB50C0009D002AB6A46FF2102F068
:105F2000DCFA002804D0FEF70EFE3EBD10203EBD78
:105F30000321204610F065FF6846008801A900058E
:105F4000800FFEF794FE00280BD168460079207080
:105F50006846008801A98004800FFEF788FE0028AB
:105F600001D003203EBD684600796070A278EF2022
:105F7000024068460088C10B09010A43F7210A4024
:105F80004104C90FC9000A43A270F9210A408006E2
:105F900001D5012000E00220400069460243097A51
:105FA00050084000C907C90F0843A07000203EBD3B
:105FB0007FB5140012D0002B10D00522019203AD42
:105FC000029500930A462388FF2102F04CF86946A7
:105FD00089892180FEF7B7FD04B070BD1020FBE772
:105FE000F3B5002799B068460C4607873D4600295F
:105FF0001ED0E068002806D0A068002818D00188CC
:106000006A4611870780199807F0A8FF002812D068
:106010000078222871D3199800F0BCFB002300906F
:106020001A46032119980CF0F9F8060009D104E08A
:1060300010201BB024E61C48FBE719491B4811F04F
:1060400002F8A078012803D0022801D00720F0E749
:106050002088002808D0401E80B203AA009902F0D0
:106060003AF9002867D12DE00F48401CE1E7694666
:10607000498A228891421BD26846807D00250128EA
:1060800020D168460349808A491C88421AD10125DB
:1060900018E0000002280000FFFF00006811002047
:1060A000BC5300008E060000013000008B08000089
:1060B000914203D1002D2AD06D1C01E0022D0BD09E
:1060C000032D04D203A802F00FF90028CFD08228B4
:1060D0001BD000282FD11DE06946897D0129F1D10F
:1060E00069468A8AFE4BD11A9A4210D006DCFD48D6
:1060F000101A0CD00128E5D109E039E0012906D0B9
:10610000FF390139DED10325E1E7022D13D10D203E
:1061100080028EE7E068002814D00EA905220291C3
:106120000192009069460B8FA2882088FF2101F020
:106130009AFF002802D0FEF706FD7AE76846A168BC
:10614000008F08806846008AC00601D5E64870E7DF
:106150000798002803D06846008B022801D003204E
:1061600067E70798A1780078012903D080070FD44A
:1061700008205EE7C007FBD00022072119980BF02A
:10618000BDFC002802D00725022003E0D74850E7D5
:106190000225032008A9087021886846818519987E
:1061A00008360A90099617216846818712AB023398
:1061B0000FAA052108A800970FF0CCF9002802D0FB
:1061C000FEF729FD35E710A800906846838F04226A
:1061D000294619980AF0B3FE2BE770B50646154616
:1061E0000C460846FEF76CFC002804D12A462146DE
:1061F0003046FFF7A1FC70BD10B5FFF735FD10BDAF
:1062000070B51E4614460D0014D0002C12D06168E3
:1062100000290FD00121FEF7CFFE002809D1206808
:10622000FEF74EFC002804D1324621462846FFF7EF
:106230007AFA70BD102070BD70B515460C000ED0F6
:106240000221FEF7B9FE002808D12068FEF738FCCD
:10625000002803D129462046FFF70EFE70BD10200E
:1062600070BDF8B51C4615460E46074600F04EFABE
:10627000002805D123462A4631463846FFF798FEC6
:10628000F8BDFFB585B01D4614000ED003A800264A
:106290000527009701960290954BFF21069A0598D5
:1062A00002F0B9F8002803D010E0102009B0E7E4AC
:1062B000002D08D000970195029623880021069AA8
:1062C000059802F0A8F8694689892180FEF73BFC11
:1062D000ECE7002907D0874B0A881B899A4202D82D
:1062E0008248401E70477BE610B586B004236C469A
:1062F000A382804B1C898C4201D2914202D97B48F7
:10630000401EB7E56C462182628200210091019116
:10631000D98821800221A17005A9029104A90391C5
:106320006946FFF75DFEA5E5F3B50C4685B0812013
:1063300069460873002C1BD0059807F00FFE070074
:1063400018D0387822285CD3059800F023FA0490FE
:106350000022012105980BF0D1FB00280DD000236D
:106360001A46032105980BF059FF05000BD106E0F2
:1063700010208CE55D48801E89E5112087E55E4987
:106380005E4810F060FE284608300EF039FD0646E3
:106390002078012803D0022822D0072077E5A188A1
:1063A00003AAFEF703FC0028E3D1B00729D568460D
:1063B000007B00281DD1A079C0071AD0E068002218
:1063C00005216B4607C3638922896888049901F017
